:020000040800F2
:100000000000052449110008410C0008490C0008B3
:10001000510C0008590C0008610C00080000000099
:10002000000000000000000000000000690C000853
:10003000770C000800000000850C0008930C0008F5
:100040009D1100089D1100089D1100089D110008D8
:100050009D1100089D1100089D1100089D110008C8
:100060009D1100089D1100089D110008A10C0008B9
:10007000B50C00089D1100089D1100089D11000895
:100080009D1100089D1100089D110008C90C000871
:10009000DD0C00089D1100089D1100089D1100084D
:1000A0009D1100089D1100089D1100089D11000878
:1000B0009D1100089D1100089D1100089D11000868
:1000C0009D1100089D1100089D1100089D11000858
:1000D0009D110008F10C00089D1100089D110008F9
:1000E0009D1100089D110008000000009D110008EE
:1000F0009D1100089D1100089D1100089D11000828
:100100009D1100089D1100089D1100089D11000817
:100110009D1100089D1100089D1100089D11000807
:100120009D1100089D1100089D1100089D110008F7
:100130009D1100089D1100089D1100089D110008E7
:1001400000000000000000000000000000000000AF
:100150009D1100089D1100089D1100089D110008C7
:100160009D1100089D1100089D1100089D110008B7
:100170009D1100089D1100089D110008000000005D
:100180009D1100089D1100089D1100089D11000897
:100190009D1100089D1100089D1100089D11000887
:1001A0009D1100089D1100089D110008000000002D
:1001B0009D1100089D1100089D1100089D11000867
:1001C0009D1100089D1100080000000000000000C3
:1001D00000000000000000009D1100080000000069
:1001E000000000000000000000000000000000000F
:1001F00000000000000000009D1100089D11000893
:100200009D1100089D110008000000009D110008CC
:100210009D110008050D00089D1100089D110008A2
:100220009D110008000000009D1100080000000062
:100230009D1100089D110008000000009D1100089C
:100240009D1100089D1100089D1100089D110008D6
:100250009D1100089D1100089D1100089D110008C6
:100260009D1100089D1100089D1100089D110008B6
:100270009D1100089D1100089D110008000000005C
:100280009D1100089D1100089D1100089D11000896
:10029000000000009D1100089D11000800000000F2
:1002A000000000009D1100089D1100089D1100082C
:1002B0009D1100089D1100089D1100089D11000866
:0C02C0009D1100089D1100089D11000810
:1002CC0010B5054C237833B9044B13B10448AFF384
:1002DC0000800123237010BD1000002400000000DA
:1002EC005CA3000808B5034B1BB103490348AFF3EB
:1002FC00008008BD00000000140000245CA300086E
:10030C0053B94AB9002908BF00281CBF4FF0FF3170
:10031C004FF0FF3000F088B9ADF1080C6DE904CE58
:10032C0000F006F8DDF804E0DDE9022304B07047C4
:10033C002DE9F047089D8E4604468846002B4AD18D
:10034C008A42174662D9B2FA82F64EB1C6F1200340
:10035C0001FA06F820FA03F3B74043EA0808B44060
:10036C004FEA174E1FFA87FCB8FBFEF1230C0EFB6D
:10037C00118843EA084301FB0CF29A4209D9FB1895
:10038C0001F1FF3080F0EA809A4240F2E7800239B6
:10039C003B449A1AA3B2B2FBFEF00EFB102243EAC6
:1003AC00024300FB0CFC9C4509D9FB1800F1FF3201
:1003BC0080F0D6809C4540F2D3803B44023840EA22
:1003CC000140A3EB0C0300211DB1F3400022C5E951
:1003DC000032BDE8F0878B4205D90DB1C5E90001AB
:1003EC0000210846F5E7B3FA83F1002946D173459D
:1003FC0002D3824200F20581841A6EEB03020120C3
:10040C009046002DE5D0C5E90048E2E7002A00F04F
:10041C009080B2FA82F6002E40F0A4808A1A030C67
:10042C004FEA174E80B2BCB20121B2FBFEFC0EFBB0
:10043C001C2243EA024304FB0CF29A4207D9FB1834
:10044C000CF1FF3802D29A4200F2E080C4469B1AAB
:10045C00B3FBFEF20EFB123340EA034302FB04F43F
:10046C009C4207D9FB1802F1FF3002D29C4200F2E9
:10047C00CA8002461B1B42EA0C40A5E7C1F12006CC
:10048C008B4022FA06F71F430EFA01F420FA06F30A
:10049C002EFA06FE4FEA1749234300FA01F81FFA19
:1004AC0087FCBEFBF9F01C0C09FB10EE44EA0E4471
:1004BC0000FB0CFEA64502FA01F209D93C1900F129
:1004CC00FF3A80F09C80A64540F2998002383C446B
:1004DC00A4EB0E041FFA83FEB4FBF9F309FB1344DF
:1004EC004EEA044403FB0CFCA44508D93C1903F167
:1004FC00FF3E80F08280A4457FD9023B3C4443EA16
:10050C000040A4EB0C04A0FB02EC64457346E146EE
:10051C0062D35FD05DB1B8EB030264EB090404FA5B
:10052C0006F622FA01F31E43CC40C5E90064002113
:10053C004FE7B1FBF2FC010C41EA0E4180B240EAFC
:10054C0001423B4638463C46B846BE462026B1FBE7
:10055C00F7F1A2EB080241EA0C4166E7014618E705
:10056C0010462CE7C6F120022EFA02F3B740B14038
:10057C0020FA02F24FEA174E0A43B3FBFEF8BCB264
:10058C000EFB1833110C41EA034108FB04F9B0408F
:10059C0089454FEA104380B23ED9791808F1FF3CE7
:1005AC0001D289451FD8A1EB0901B1FBFEF909FB6A
:1005BC0004F80EFB191192B242EA0142424529D2CB
:1005CC00BA1809F1FF31C4D24245C2D2A9F10201D5
:1005DC003A44BEE7F0459DD2BEEB02036CEB070C30
:1005EC000138E14696E7A7EB09094944A8F1020C4A
:1005FC00B1FBFEF909FB04F8DBE773467FE75046D5
:10060C0066E70846FDE63B44023A33E7ACF1020CE0
:10061C003B441CE749469CE7A1EB0901C446B1FBEE
:10062C00FEF909FB04F8C4E7704700BF80B582B03F
:10063C0000AF114BD3F8D8300F4A43F00103C2F886
:10064C00D8300D4BD3F8D83003F001037B607B68B6
:10065C00002200210B2000F00AFF0B2000F021FFEC
:10066C00002200210C2000F002FF0C2000F019FFEA
:10067C0000BF0837BD4680BD0044025880B500AFAE
:10068C002E4B2F4A1A602D4B00229A602B4B0022C6
:10069C00DA602A4B00221A74284B00225A74274B1A
:1006AC0000229A74254B10225A61244B01229A6124
:1006BC00224B0122DA61214B01221A621F4B0122CB
:1006CC005A621E4B01229A621C4B0122DA621B4BAE
:1006DC0001221A63194B00225A63184B00229A63A9
:1006EC00164B0022DA63154B00221A64134B0422BA
:1006FC005A64124B00229A64104B0422DA640F4B9A
:10070C0000221A650D4B04225A650C4B00229A6587
:10071C000A4B0022DA65094B00221A66074B0022AD
:10072C005A66064B04229A66044803F06FF9034696
:10073C00002B01D000F05DFA00BF80BD2C0000241E
:10074C0000A0004080B500AF2E4B2F4A1A602D4BF5
:10075C0000229A602B4B0022DA602A4B00221A747A
:10076C00284B00225A74274B00229A74254B1022D6
:10077C005A61244B01229A61224B0122DA61214BEE
:10078C0001221A621F4B01225A621E4B01229A62ED
:10079C001C4B0122DA621B4B01221A63194B0022FB
:1007AC005A63184B00229A63164B0022DA63154BDE
:1007BC0000221A64134B04225A64124B00229A64CE
:1007CC00104B0422DA640F4B00221A650D4B0422E5
:1007DC005A650C4B00229A650A4B0022DA65094BCC
:1007EC0000221A66074B00225A66064B04229A66B0
:1007FC00044803F00BF90346002B01D000F0F9F983
:10080C0000BF80BDCC00002400A4004080B58CB09B
:10081C0000AF786007F11C0300221A605A609A60DE
:10082C00DA601A617B681B68454A93423FD1454B9D
:10083C001B680133434A1360424B1B68012B0ED1DA
:10084C00414BD3F8EC30404A43F48073C2F8EC309F
:10085C003D4BD3F8EC3003F48073BB61BB693A4B6E
:10086C00D3F8E030384A43F00803C2F8E030364B96
:10087C00D3F8E03003F008037B617B690323FB6151
:10088C0002233B6200237B620023BB620923FB62D1
:10089C0007F11C0319462D4804F0DAFA0022002156
:1008AC00132000F0E4FD132000F0FBFD44E07B6816
:1008BC001B68274A93423FD1224B1B680133214AC4
:1008CC001360204B1B68012B0ED11F4BD3F8EC305F
:1008DC001D4A43F48073C2F8EC301B4BD3F8EC3058
:1008EC0003F480733B613B69174BD3F8E030164A35
:1008FC0043F00203C2F8E030134BD3F8E03003F0BE
:10090C000203FB60FB684FF44053FB6102233B6224
:10091C0000237B620023BB620923FB6207F11C03EB
:10092C0019460C4804F094FA00220021142000F01F
:10093C009EFD142000F0B5FD00BF3037BD4680BDD4
:10094C0000A000406C01002400440258000C025826
:10095C0000A400400004025880B485B000AF214BC5
:10096C00D3F8E0301F4A43F08003C2F8E0301D4B4F
:10097C00D3F8E03003F08003FB60FB68194BD3F82D
:10098C00E030184A43F00203C2F8E030154BD3F8BC
:10099C00E03003F00203BB60BB68124BD3F8E030CD
:1009AC00104A43F00103C2F8E0300E4BD3F8E030AC
:1009BC0003F001037B607B680A4BD3F8E030094AF3
:1009CC0043F00803C2F8E030064BD3F8E03003F0F4
:1009DC0008033B603B6800BF1437BD465DF8047BE1
:1009EC00704700BF0044025880B500AF0B4B0C4A57
:1009FC001A600A4B00225A60084B40F6FF72DA600C
:100A0C00064B40F6FF729A60044804F0C9FB03469B
:100A1C00002B01D000F0EDF800BF80BD7001002468
:100A2C000048005880B500AF00F0B7F800F0B2FBFA
:100A3C0000F014F800F082F8FFF78EFFFFF7F6FDD8
:100A4C00FFF71CFEFFF77EFE00F008FA00F054FAE8
:100A5C00FFF7CAFF09F03AFC00BFFDE780B59CB078
:100A6C0000AF07F124034C220021184609F035FC95
:100A7C003B1D20220021184609F02FFC022004F017
:100A8C00E1FB00233B602C4B9B692B4A23F4404336
:100A9C009361294B9B6903F440433B603B6800BF67
:100AAC00254B9B6903F40053B3F5005FF8D1092380
:100ABC007B624FF48033BB620123BB630223BB64B4
:100ACC000223FB6402233B652C237B650123BB655E
:100ADC000523FB6502233B660C237B660023BB6668
:100AEC000023FB6607F12403184604F0E5FB0346DC
:100AFC00002B01D000F07DF83F237B600323BB600B
:100B0C000023FB6008233B6140237B614023BB61D6
:100B1C004FF48063FB6140233B623B1D032118466D
:100B2C0004F0A4FF0346002B01D000F062F800BFD4
:100B3C007037BD4680BD00BF0048025880B5AEB0CE
:100B4C0000AF3B46B8220021184609F0C6FB4FF413
:100B5C0000424FF00003C7E900230A23BB60602367
:100B6C00FB6002233B6102237B610223BB614023B8
:100B7C00FB6100233B6200237B624FF00053FB665A
:100B8C003B46184605F0FEFA0346002B01D000F058
:100B9C0030F800BFB837BD4680BD80B584B000AF1B
:100BAC003B4600221A605A609A60DA6000F094FCAE
:100BBC0001233B7000237B7000237B601F233B725F
:100BCC0087237B720023BB720023FB7201233B73D0
:100BDC0001237B730023BB730023FB733B46184636
:100BEC0000F0B2FC042000F08FFC00BF1037BD46B3
:100BFC0080BD80B400AF72B600BF00BFFDE700003F
:100C0C0080B483B000AF0A4BD3F8F430084A43F0F9
:100C1C000203C2F8F430064BD3F8F43003F00203AD
:100C2C007B607B6800BF0C37BD465DF8047B70476A
:100C3C000044025880B400AF00BFFDE780B400AFA1
:100C4C0000BFFDE780B400AF00BFFDE780B400AF8C
:100C5C0000BFFDE780B400AF00BFFDE780B400AF7C
:100C6C0000BFBD465DF8047B704780B400AF00BF89
:100C7C00BD465DF8047B704780B400AF00BFBD4635
:100C8C005DF8047B704780B500AF00F0F5FA00BF4B
:100C9C0080BD000080B500AF024801F051FD00BFDF
:100CAC0080BD00BF6002002480B500AF024801F097
:100CBC0047FD00BF80BD00BFD802002480B500AF47
:100CCC00024803F0C1FB00BF80BD00BF2C00002414
:100CDC0080B500AF024803F0B7FB00BF80BD00BF7A
:100CEC00CC00002480B500AF024807F0B7FA00BF73
:100CFC0080BD00BFCC01002480B500AF024807F0D6
:100D0C005AF800BF80BD00BF8001002480B400AF42
:100D1C003E4BD3F888303D4A43F47003C2F8883018
:100D2C003B4B1B6803F00F03062B07D8384B1B6893
:100D3C0023F00F03364A43F007031360354B1B684F
:100D4C00344A43F001031360324B00221A61314BD9
:100D5C001A683049304B13400B602D4B1B6803F065
:100D6C000803002B07D02A4B1B6823F00F03284ADB
:100D7C0043F007031360274B00229A61254B002296
:100D8C00DA61244B00221A62224B244A9A62214BCC
:100D9C00234ADA621F4B234A1A631E4B00225A6302
:100DAC001C4B204A9A631B4B0022DA63194B1D4AD9
:100DBC001A64184B00225A64164B1B68154A23F40C
:100DCC0080231360134B00221A66124BD3F8D430D5
:100DDC0003F48053002B13D10E4BD3F8D4300D4AAF
:100DEC0043F48053C2F8D4300F4B43F2D2021A6052
:100DFC00084BD3F8D430074A23F48053C2F8D430CC
:100E0C0000BFBD465DF8047B704700BF00ED00E0FD
:100E1C0000200052004402587FEDF6EA0002020264
:100E2C000000FF01800201010040005280B400AFBD
:100E3C00094BDB68084A43F00203D36000BF064B42
:100E4C005B6803F40053002BF9D000BF00BFBD4614
:100E5C005DF8047B704700BF0048025880B500AFB6
:100E6C000F4B104A1A600E4B00225A600C4B00229A
:100E7C009A600B4B4FF6FF72DA60094B00221A6135
:100E8C00074B00225A61064B00229A61044806F077
:100E9C003BFF0346002B01D0FFF7ABFE00BF80BD2C
:100EAC00800100240044014080B584B000AF78601C
:100EBC007B681B680E4A934216D10E4BD3F8F03068
:100ECC000C4A43F40033C2F8F0300A4BD3F8F0303C
:100EDC0003F40033FB60FB6800220021752000F056
:100EEC00C6FA752000F0DDFA00BF1037BD4680BD94
:100EFC00004401400044025880B500AF224B234A05
:100F0C001A60214B4FF4E1325A601F4B00229A6059
:100F1C001D4B0022DA601C4B00221A611A4B0C226A
:100F2C005A61194B00229A61174B0022DA61164B59
:100F3C0000221A62144B00225A62134B00229A624E
:100F4C00114807F03BF90346002B01D0FFF751FE87
:100F5C0000210D4808F098FE0346002B01D0FFF746
:100F6C0048FE0021084808F0CDFE0346002B01D0B6
:100F7C00FFF73FFE044808F04EFE0346002B01D05D
:100F8C00FFF737FE00BF80BDCC01002400100140EC
:100F9C0080B5B8B000AF786007F1CC0300221A60BE
:100FAC005A609A60DA601A6107F11003B8220021C6
:100FBC00184609F092F97B681B68594A934240F035
:100FCC00AA804FF001024FF00003C7E9042300236D
:100FDC00C7F8883007F11003184605F0D3F803461C
:100FEC00002B01D0FFF705FE4E4BD3F8F0304D4AE5
:100FFC0043F01003C2F8F0304A4BD3F8F03003F052
:10100C001003FB60FB68474BD3F8E030454A43F0D4
:10101C000203C2F8E030434BD3F8E03003F0020394
:10102C00BB60BB684FF44043C7F8CC300223C7F811
:10103C00D0300023C7F8D4300023C7F8D8300423AD
:10104C00C7F8DC3007F1CC031946374803F000FF32
:10105C00364B374A1A60354B29225A60334B0022E3
:10106C009A60324B0022DA60304B4FF480621A6186
:10107C002E4B00225A612D4B00229A612B4B0022E1
:10108C00DA612A4B00221A62284B00225A62274846
:10109C0000F09AFA0346002B01D0FFF7AAFD7B68FB
:1010AC00224AC3F88020214A7B689363214B224A51
:1010BC001A60204B2A225A601E4B40229A601D4B0C
:1010CC000022DA601B4B4FF480621A61194B00222C
:1010DC005A61184B00229A61164B0022DA61154BAB
:1010EC0000221A62134B00225A62124800F06CFA6A
:1010FC000346002B01D0FFF77CFD7B680D4ADA67B5
:10110C000C4A7B68936300220021252000F0AFF984
:10111C00252000F0C6F900BFE037BD4680BD00BFFA
:10112C0000100140004402580004025860020024E0
:10113C0010000240D802002428000240DFF838D00A
:10114C00FFF774FEFFF7E2FD0C480D490D4A002332
:10115C0002E0D458C4500433C4188C42F9D30A4A60
:10116C000A4C002301E013600432A242FBD309F0C5
:10117C00BDF8FFF757FC7047000005240000002461
:10118C001000002430A40008100000247027002454
:10119C00FEE7000080B582B000AF032000F05CF9E0
:1011AC0004F01AFE0246154B9B691B0A03F00F0351
:1011BC001349CB5C03F01F0322FA03F37B600F4B44
:1011CC009B6903F00F030E4AD35C03F01F037A688C
:1011DC0022FA03F30B4A13600B4A7B6813600F204F
:1011EC0000F014F80346002B01D0012302E0FFF7B6
:1011FC0007FD002318460837BD4680BD0044025841
:10120C00C0A30008040000240000002480B582B0B4
:10121C0000AF7860154B1B78002B01D1012321E026
:10122C00134B1A68114B1B7819464FF47A73B3FBA6
:10123C00F1F3B2FBF3F3184600F041F90346002B2F
:10124C0001D001230EE07B680F2B0AD800227968AD
:10125C004FF0FF3000F00BF9064A7B681360002357
:10126C0000E0012318460837BD4680BD0C00002461
:10127C00000000240800002480B400AF064B1B784B
:10128C001A46064B1B681344044A136000BFBD4644
:10129C005DF8047B704700BF0C0000245003002451
:1012AC0080B400AF034B1B681846BD465DF8047B49
:1012BC00704700BF5003002480B485B000AF786045
:1012CC007B6803F00703FB600B4BDB68BB60BA6801
:1012DC004FF6FF031340BB60FB681A02BB681A434E
:1012EC00064B1343BB60044ABB68D36000BF143782
:1012FC00BD465DF8047B704700ED00E00000FA0588
:10130C0080B400AF044BDB681B0A03F007031846DC
:10131C00BD465DF8047B704700ED00E080B483B0FF
:10132C0000AF0346FB80B7F90630002B0BDBFB88C4
:10133C0003F01F020749B7F906305B09012000FAD8
:10134C0002F241F8232000BF0C37BD465DF8047B48
:10135C00704700BF00E100E080B483B000AF0346EB
:10136C003960FB80B7F90630002B0ADB3B68DAB238
:10137C000C49B7F906301201D2B20B4483F80023A2
:10138C000AE03B68DAB20849FB8803F00F03043B20
:10139C001201D2B20B441A7600BF0C37BD465DF871
:1013AC00047B704700E100E000ED00E080B489B000
:1013BC0000AFF860B9607A60FB6803F00703FB616B
:1013CC00FB69C3F10703042B28BF0423BB61FB6932
:1013DC000433062B02D9FB69033B00E000237B613D
:1013EC004FF0FF32BB6902FA03F3DA43BB681A40D1
:1013FC007B699A404FF0FF317B6901FA03F3D943C3
:10140C007B680B40134318462437BD465DF8047BBC
:10141C007047000080B582B000AF78607B68013BFC
:10142C00B3F1807F01D301230FE00A4A7B68013BB3
:10143C0053600F214FF0FF30FFF78EFF054B00225A
:10144C009A60044B07221A60002318460837BD46E1
:10145C0080BD00BF10E000E080B582B000AF7860C6
:10146C007868FFF729FF00BF0837BD4680BD80B5FF
:10147C0086B000AF0346B9607A60FB81FFF740FF8E
:10148C0078617A68B9687869FFF790FF0246B7F916
:10149C000E3011461846FFF75FFF00BF1837BD46E8
:1014AC0080BD80B582B000AF0346FB80B7F9063033
:1014BC001846FFF733FF00BF0837BD4680BD80B527
:1014CC0082B000AF78607868FFF7A4FF0346184637
:1014DC000837BD4680BD000080B400AFBFF35F8FFE
:1014EC0000BF074B5B6A064A23F480335362054BFB
:1014FC0000225A6000BFBD465DF8047B704700BFF8
:10150C0000ED00E090ED00E080B483B000AF7860B7
:10151C000B4A7B6843F0010353600A4B5B6A094A30
:10152C0043F480335362BFF34F8F00BFBFF36F8F11
:10153C0000BF00BF0C37BD465DF8047B704700BF91
:10154C0090ED00E000ED00E080B483B000AF786077
:10155C007B685A781B4B9A601A4B1B69194A23F00B
:10156C0001031361174A7B685B68D3607B681B7B44
:10157C001A077B68DB7A1B061A437B689B7ADB04B1
:10158C001A437B685B7B9B041A437B689B7B5B04E5
:10159C001A437B68DB7B1B041A437B685B7A1B0258
:1015AC001A437B681B7A5B0013437A6812781146E6
:1015BC00044A0B43136100BF0C37BD465DF8047B36
:1015CC00704700BF90ED00E080B586B000AF78604A
:1015DC00FFF766FE38617B68002B01D1012312E313
:1015EC007B681B68664A93424AD07B681B68654AD5
:1015FC00934245D07B681B68634A934240D07B681A
:10160C001B68624A93423BD07B681B68604A9342DA
:10161C0036D07B681B685F4A934231D07B681B686D
:10162C005D4A93422CD07B681B685C4A934227D05E
:10163C007B681B685A4A934222D07B681B68594AC4
:10164C0093421DD07B681B68574A934218D07B6825
:10165C001B68564A934213D07B681B68544A9342CA
:10166C000ED07B681B68534A934209D07B681B6879
:10167C00514A934204D07B681B68504A934201D173
:10168C00012300E00023002B00F03C817B68022248
:10169C0083F835207B68002283F834207B681B6834
:1016AC00374A93424AD07B681B68364A934245D0EE
:1016BC007B681B68344A934240D07B681B68334A72
:1016CC0093423BD07B681B68314A934236D07B688F
:1016DC001B68304A934231D07B681B682E4A934278
:1016EC002CD07B681B682D4A934227D07B681B68E3
:1016FC002B4A934222D07B681B682A4A93421DD006
:10170C007B681B68284A934218D07B681B68274A61
:10171C00934213D07B681B68254A93420ED07B689A
:10172C001B68244A934209D07B681B68224A934267
:10173C0004D07B681B68214A934208D17B681B68E4
:10174C001A687B681B6822F001021A6007E07B684C
:10175C001B681A687B681B6822F001021A602FE074
:10176C00FFF79EFD02463B69D31A052B28D97B68EF
:10177C0020225A657B68032283F83520012342E23C
:10178C001000024028000240400002405800024075
:10179C007000024088000240A0000240B8000240E5
:1017AC001004024028040240400402405804024045
:1017BC007004024088040240A0040240B8040240B5
:1017CC007B681B681B6803F00103002BC8D17B6886
:1017DC001B681B687B617A69834B13407B617B6858
:1017EC009A687B68DB681A437B681B691A437B68C1
:1017FC005B691A437B689B691A437B68DB691A43F4
:10180C007B681B6A13437A6913437B617B685B6A51
:10181C00042B07D17B68DA6A7B681B6B13437A69EC
:10182C0013437B617B685B68282B03D97B685B68FF
:10183C002E2B1FD97B685B683E2B03D97B685B68BA
:10184C00422B17D97B685B68462B03D97B685B6896
:10185C00482B0FD97B685B684E2B03D97B685B6880
:10186C00522B07D97B685B68732B05D97B685B6847
:10187C00772B01D8012300E00023002B03D07B69D8
:10188C0043F480137B617B681B687A691A607B6800
:10189C001B685B697B617B6923F007037B617B6859
:1018AC005B6A7A6913437B617B685B6A042B17D193
:1018BC007B689B6A7A6913437B617B68DB6A002BCC
:1018CC000ED0786801F018FF0346002B08D07B6817
:1018DC0040225A657B68012283F83520012392E16E
:1018EC007B681B687A695A61786801F053FE03467D
:1018FC00BB607B68DB6D03F01F033F229A40BB6823
:10190C009A60C8E07B681B68384A934222D07B6897
:10191C001B68374A93421DD07B681B68354A93423B
:10192C0018D07B681B68344A934213D07B681B68C1
:10193C00324A93420ED07B681B68314A934209D0DD
:10194C007B681B682F4A934204D07B681B682E4A25
:10195C00934201D1012300E00023002B00F0928080
:10196C007B681B68214A934221D07B681B68204A04
:10197C0093421CD07B681B681E4A934217D07B682D
:10198C001B681D4A934212D07B681B681B4A93420A
:10199C000DD07B681B681A4A934208D07B681B6881
:1019AC00184A934203D07B681B68174A93427B68A2
:1019BC00022283F835207B68002283F834207B6870
:1019CC001B681B687B617A69104B13407B617B68D9
:1019DC009B68402B1CD07B689B68802B02D14FF4FA
:1019EC00804316E0002314E03F8010FE0854025898
:1019FC001C5402583054025844540258585402583B
:101A0C006C54025880540258945402580F00FEFF34
:101A1C0010237A68D268D2081A437B681B69DB08EA
:101A2C001A437B685B69DB081A437B689B69DB089C
:101A3C001A437B68DB69DB081A437B681B6A1B094A
:101A4C0013437A6913437B617B681B687A691A605C
:101A5C007B681B681A466E4B13446E4AA2FB032329
:101A6C001B099A007B68DA65786801F093FD0346E0
:101A7C00FB607B68DB6D03F01F0301229A40FB685F
:101A8C005A6008E07B6840225A657B68032283F821
:101A9C0035200123B7E07B681B685F4A934272D004
:101AAC007B681B685D4A93426DD07B681B685C4AFF
:101ABC00934268D07B681B685A4A934263D07B6818
:101ACC001B68594A93425ED07B681B68574A934205
:101ADC0059D07B681B68564A934254D07B681B686C
:101AEC00544A93424FD07B681B68534A93424AD066
:101AFC007B681B68514A934245D07B681B68504AEF
:101B0C00934240D07B681B684E4A93423BD07B6823
:101B1C001B684D4A934236D07B681B684B4A9342F4
:101B2C0031D07B681B684A4A93422CD07B681B6877
:101B3C00484A934227D07B681B68474A934222D07D
:101B4C007B681B68454A93421DD07B681B68444ADE
:101B5C00934218D07B681B68424A934213D07B682F
:101B6C001B68414A93420ED07B681B683F4A9342E4
:101B7C0009D07B681B683E4A934204D07B681B6883
:101B8C003C4A934201D1012300E00023002B32D0C8
:101B9C00786801F02DFE7B689B68802B02D17B68F6
:101BAC0000225A607B685A687B681B6ED2B21A603E
:101BBC007B685B6E7A68926E5A607B685B68002B00
:101BCC0010D07B685B68082B0CD8786801F0AAFEF3
:101BDC007B68DB6E00221A607B681B6F7A68526F21
:101BEC005A6008E07B680022DA667B6800221A677C
:101BFC007B6800225A677B6800225A657B68012249
:101C0C0083F83520002318461837BD4680BD00BF29
:101C1C00F8ABFDA7CDCCCCCC100002402800024084
:101C2C004000024058000240700002408800024010
:101C3C00A0000240B80002401004024028040240F8
:101C4C0040040240580402407004024088040240E0
:101C5C00A0040240B8040240085402581C54025814
:101C6C003054025844540258585402586C54025878
:101C7C00805402589454025880B586B000AF7860F6
:101C8C00FFF70EFB38617B68002B01D10123DCE2EE
:101C9C007B6893F83530DBB2022B08D07B6880224E
:101CAC005A657B68002283F834200123CDE27B68DF
:101CBC001B68764A93424AD07B681B68744A9342ED
:101CCC0045D07B681B68734A934240D07B681B6885
:101CDC00714A93423BD07B681B68704A934236D062
:101CEC007B681B686E4A934231D07B681B686D4AD7
:101CFC0093422CD07B681B686B4A934227D07B683D
:101D0C001B686A4A934222D07B681B68684A9342DC
:101D1C001DD07B681B68674A934218D07B681B6890
:101D2C00654A934213D07B681B68644A93420ED079
:101D3C007B681B68624A934209D07B681B68614AC6
:101D4C00934204D07B681B685F4A934201D1012304
:101D5C0000E00023002B13D07B681B681A687B689B
:101D6C001B6822F01E021A607B681B685A697B682C
:101D7C001B6822F080025A617B681B687B610AE059
:101D8C007B681B681A687B681B6822F00E021A605D
:101D9C007B681B687B617B681B683C4A934272D0F2
:101DAC007B681B683A4A93426DD07B681B68394A42
:101DBC00934268D07B681B68374A934263D07B6838
:101DCC001B68364A93425ED07B681B68344A934248
:101DDC0059D07B681B68334A934254D07B681B688C
:101DEC00314A93424FD07B681B68304A93424AD0A9
:101DFC007B681B682E4A934245D07B681B682D4A32
:101E0C00934240D07B681B682B4A93423BD07B6843
:101E1C001B682A4A934236D07B681B68284A934237
:101E2C0031D07B681B68274A93422CD07B681B6897
:101E3C00254A934227D07B681B68244A934222D0C0
:101E4C007B681B68224A93421DD07B681B68214A21
:101E5C00934218D07B681B681F4A934213D07B684F
:101E6C001B681E4A93420ED07B681B681C4A934227
:101E7C0009D07B681B681B4A934204D07B681B68A3
:101E8C00194A934232D1012331E000BF10000240C5
:101E9C0028000240400002405800024070000240FE
:101EAC0088000240A0000240B8000240100402402A
:101EBC0028040240400402405804024070040240CE
:101ECC0088040240A0040240B8040240085402589E
:101EDC001C54025830540258445402585854025856
:101EEC006C54025880540258945402580023002B0E
:101EFC0007D07B681B6E1A687B681B6E22F480729D
:101F0C001A607B681B686D4A93424AD07B681B68D9
:101F1C006B4A934245D07B681B686A4A934240D017
:101F2C007B681B68684A93423BD07B681B68674A96
:101F3C00934236D07B681B68654A934231D07B68EC
:101F4C001B68644A93422CD07B681B68624A93429C
:101F5C0027D07B681B68614A934222D07B681B6840
:101F6C005F4A93421DD07B681B685E4A934218D02F
:101F7C007B681B685C4A934213D07B681B685B4A86
:101F8C0093420ED07B681B68594A934209D07B68F8
:101F9C001B68584A934204D07B681B68564A93428C
:101FAC0008D17B681B681A687B681B6822F00102E9
:101FBC001A6007E07B681B681A687B681B6822F054
:101FCC0001021A6013E0FFF76BF902463B69D31A62
:101FDC00052B0CD97B6820225A657B68032283F879
:101FEC0035207B68002283F8342001232DE17B69A6
:101FFC001B6803F00103002BE5D17B681B682F4A9B
:10200C0093424AD07B681B682D4A934245D07B682B
:10201C001B682C4A934240D07B681B682A4A934227
:10202C003BD07B681B68294A934236D07B681B687F
:10203C00274A934231D07B681B68264A93422CD0A6
:10204C007B681B68244A934227D07B681B68234A11
:10205C00934222D07B681B68214A93421DD07B6837
:10206C001B68204A934218D07B681B681E4A934217
:10207C0013D07B681B681D4A93420ED07B681B688B
:10208C001B4A934209D07B681B681A4A934204D0BE
:10209C007B681B68184A934201D1012300E000239E
:1020AC00002B2BD07B689B6DBB607B68DB6D03F0DA
:1020BC001F033F229A40BB689A602AE0100002403E
:1020CC0028000240400002405800024070000240CC
:1020DC0088000240A0000240B800024010040240F8
:1020EC00280402404004024058040240700402409C
:1020FC0088040240A0040240B80402407B689B6D37
:10210C00FB607B68DB6D03F01F0301229A40FB68C8
:10211C005A607B681B684F4A934272D07B681B687D
:10212C004D4A93426DD07B681B684C4A934268D0F1
:10213C007B681B684A4A934263D07B681B68494A98
:10214C0093425ED07B681B68474A934259D07B68A8
:10215C001B68464A934254D07B681B68444A93429E
:10216C004FD07B681B68434A93424AD07B681B68FC
:10217C00414A934245D07B681B68404A934240D009
:10218C007B681B683E4A93423BD07B681B683D4A88
:10219C00934236D07B681B683B4A934231D07B68B4
:1021AC001B683A4A93422CD07B681B68384A93428E
:1021BC0027D07B681B68374A934222D07B681B6808
:1021CC00354A93421DD07B681B68344A934218D021
:1021DC007B681B68324A934213D07B681B68314A78
:1021EC0093420ED07B681B682F4A934209D07B68C0
:1021FC001B682E4A934204D07B681B682C4A93427E
:10220C0001D1012300E00023002B15D07B685B6E0D
:10221C007A68926E5A607B68DB6E002B0CD07B6800
:10222C00DB6E1A687B68DB6E22F480721A607B6846
:10223C001B6F7A68526F5A607B68012283F83520D5
:10224C007B68002283F83420002318461837BD46DB
:10225C0080BD00BF10000240280002404000024038
:10226C00580002407000024088000240A00002406A
:10227C00B80002401004024028040240400402400E
:10228C00580402407004024088040240A00402403A
:10229C00B8040240085402581C54025830540258D6
:1022AC0044540258585402586C54025880540258E2
:1022BC009454025880B584B000AF78607B68002BD2
:1022CC0001D1012337E27B6893F83530DBB2022B66
:1022DC0004D07B6880225A6501232CE27B681B6842
:1022EC005C4A93424AD07B681B685B4A934245D058
:1022FC007B681B68594A934240D07B681B68584ADC
:10230C0093423BD07B681B68564A934236D07B681D
:10231C001B68554A934231D07B681B68534A9342E1
:10232C002CD07B681B68524A934227D07B681B6871
:10233C00504A934222D07B681B684F4A93421DD06F
:10234C007B681B684D4A934218D07B681B684C4ACB
:10235C00934213D07B681B684A4A93420ED07B6829
:10236C001B68494A934209D07B681B68474A9342D1
:10237C0004D07B681B68464A934201D1012300E0DC
:10238C000023002B00F086807B68042283F8352024
:10239C007B681B682F4A93424AD07B681B682E4A85
:1023AC00934245D07B681B682C4A934240D07B6893
:1023BC001B682B4A93423BD07B681B68294A93428B
:1023CC0036D07B681B68284A934231D07B681B68E7
:1023DC00264A93422CD07B681B68254A934227D00F
:1023EC007B681B68234A934222D07B681B68224A75
:1023FC0093421DD07B681B68204A934218D07B689F
:10240C001B681F4A934213D07B681B681D4A93427A
:10241C000ED07B681B681C4A934209D07B681B68F2
:10242C001A4A934204D07B681B68194A934208D11C
:10243C007B681B681A687B681B6822F001021A60B3
:10244C0078E17B681B681A687B681B6822F00102C4
:10245C001A606FE110000240280002404000024068
:10246C00580002407000024088000240A000024068
:10247C00B80002401004024028040240400402400C
:10248C00580402407004024088040240A004024038
:10249C00B80402407B681B681A687B681B6822F0D2
:1024AC000E021A607B681B686C4A93424AD07B68A8
:1024BC001B686B4A934245D07B681B68694A934200
:1024CC0040D07B681B68684A93423BD07B681B6892
:1024DC00664A934236D07B681B68654A934231D07A
:1024EC007B681B68634A93422CD07B681B68624AEA
:1024FC00934227D07B681B68604A934222D07B684A
:10250C001B685F4A93421DD07B681B685D4A9342EF
:10251C0018D07B681B685C4A934213D07B681B689D
:10252C005A4A93420ED07B681B68594A934209D091
:10253C007B681B68574A934204D07B681B68564AD9
:10254C00934208D17B681B681A687B681B6822F071
:10255C0001021A6007E07B681B681A687B681B68BD
:10256C0022F001021A607B681B683C4A934272D0CD
:10257C007B681B683A4A93426DD07B681B68394A6A
:10258C00934268D07B681B68374A934263D07B6860
:10259C001B68364A93425ED07B681B68344A934270
:1025AC0059D07B681B68334A934254D07B681B68B4
:1025BC00314A93424FD07B681B68304A93424AD0D1
:1025CC007B681B682E4A934245D07B681B682D4A5A
:1025DC00934240D07B681B682B4A93423BD07B686C
:1025EC001B682A4A934236D07B681B68284A934260
:1025FC0031D07B681B68274A93422CD07B681B68C0
:10260C00254A934227D07B681B68244A934222D0E8
:10261C007B681B68224A93421DD07B681B68214A49
:10262C00934218D07B681B681F4A934213D07B6877
:10263C001B681E4A93420ED07B681B681C4A93424F
:10264C0009D07B681B681B4A934204D07B681B68CB
:10265C00194A934232D1012331E000BF10000240ED
:10266C002800024040000240580002407000024026
:10267C0088000240A0000240B80002401004024052
:10268C0028040240400402405804024070040240F6
:10269C0088040240A0040240B804024008540258C6
:1026AC001C5402583054025844540258585402587E
:1026BC006C54025880540258945402580023002B36
:1026CC0028D07B681B6E1A687B681B6E22F48072A4
:1026DC001A607B689B6DFB607B68DB6D03F01F03EE
:1026EC0001229A40FB685A607B685B6E7A68926E36
:1026FC005A607B68DB6E002B0CD07B68DB6E1A6833
:10270C007B68DB6E22F480721A607B681B6F7A68C0
:10271C00526F5A607B68012283F835207B68002257
:10272C0083F834207B681B6D002B03D07B681B6DFA
:10273C0078689847002318461037BD4680BD00BF07
:10274C0080B58AB000AF78600023FB60674B1B68D4
:10275C00674AA2FB03239B0A7B627B689B6D3B62EF
:10276C007B689B6DFB613B6A1B68BB61FB691B68EB
:10277C007B617B681B685F4A93424AD07B681B680D
:10278C005D4A934245D07B681B685C4A934240D0BB
:10279C007B681B685A4A93423BD07B681B68594A3A
:1027AC00934236D07B681B68574A934231D07B6882
:1027BC001B68564A93422CD07B681B68544A934240
:1027CC0027D07B681B68534A934222D07B681B68D6
:1027DC00514A93421DD07B681B68504A934218D0D3
:1027EC007B681B684E4A934213D07B681B684D4A2A
:1027FC0093420ED07B681B684B4A934209D07B688E
:10280C001B684A4A934204D07B681B68484A93422F
:10281C0001D1012300E00023002B00F02B847B6806
:10282C00DB6D03F01F0308229A40BB691340002B99
:10283C0000F0A2807B681B682E4A93424AD07B68CA
:10284C001B682D4A934245D07B681B682B4A9342E8
:10285C0040D07B681B682A4A93423BD07B681B683C
:10286C00284A934236D07B681B68274A934231D062
:10287C007B681B68254A93422CD07B681B68244AD2
:10288C00934227D07B681B68224A934222D07B68F4
:10289C001B68214A93421DD07B681B681F4A9342D8
:1028AC0018D07B681B681E4A934213D07B681B6848
:1028BC001C4A93420ED07B681B681B4A934209D07A
:1028CC007B681B68194A934204D07B681B68184AC2
:1028DC0093422FD17B681B681B6803F00403002B09
:1028EC0014BF01230023DBB22EE000BF0000002444
:1028FC00B5814E1B100002402800024040000240EF
:10290C00580002407000024088000240A0000240C3
:10291C00B800024010040240280402404004024067
:10292C00580402407004024088040240A004024093
:10293C00B80402407B681B681B6803F00803002B7B
:10294C0014BF01230023DBB2002B15D07B681B685E
:10295C001A687B681B6822F004021A607B68DB6DC6
:10296C0003F01F0308229A403B6A9A607B685B6DF8
:10297C0043F001027B685A657B68DB6D03F01F0333
:10298C00BA6922FA03F303F00103002B6ED07B68C3
:10299C001B68694A93424AD07B681B68674A93421A
:1029AC0045D07B681B68664A934240D07B681B68A5
:1029BC00644A93423BD07B681B68634A934236D08F
:1029CC007B681B68614A934231D07B681B68604A04
:1029DC0093422CD07B681B685E4A934227D07B685D
:1029EC001B685D4A934222D07B681B685B4A93420A
:1029FC001DD07B681B685A4A934218D07B681B68B1
:102A0C00584A934213D07B681B68574A93420ED0A6
:102A1C007B681B68554A934209D07B681B68544AF3
:102A2C00934204D07B681B68524A93420AD17B685C
:102A3C001B685B6903F08003002B14BF0123002388
:102A4C00DBB203E07B681B681B680023002B0DD0F6
:102A5C007B68DB6D03F01F0301229A403B6A9A608E
:102A6C007B685B6D43F002027B685A657B68DB6DAB
:102A7C0003F01F0304229A40BB691340002B00F0A3
:102A8C008F807B681B682C4A93424AD07B681B68FA
:102A9C002A4A934245D07B681B68294A934240D00E
:102AAC007B681B68274A93423BD07B681B68264A8D
:102ABC00934236D07B681B68244A934231D07B68A2
:102ACC001B68234A93422CD07B681B68214A934293
:102ADC0027D07B681B68204A934222D07B681B68F6
:102AEC001E4A93421DD07B681B681D4A934218D026
:102AFC007B681B681B4A934213D07B681B681A4A7D
:102B0C0093420ED07B681B68184A934209D07B68AD
:102B1C001B68174A934204D07B681B68154A934282
:102B2C002AD17B681B681B6803F00203002B14BFBF
:102B3C0001230023DBB223E01000024028000240F6
:102B4C0040000240580002407000024088000240E1
:102B5C00A0000240B80002401004024028040240C9
:102B6C0040040240580402407004024088040240B1
:102B7C00A0040240B80402407B681B681B68002359
:102B8C00002B0DD07B68DB6D03F01F0304229A40F1
:102B9C003B6A9A607B685B6D43F004027B685A6504
:102BAC007B68DB6D03F01F0310229A40BB69134056
:102BBC00002B00F0A6807B681B68854A93424AD0A4
:102BCC007B681B68834A934245D07B681B68824AAA
:102BDC00934240D07B681B68804A93423BD07B6811
:102BEC001B687F4A934236D07B681B687D4A9342B0
:102BFC0031D07B681B687C4A93422CD07B681B6865
:102C0C007A4A934227D07B681B68794A934222D038
:102C1C007B681B68774A93421DD07B681B68764A99
:102C2C00934218D07B681B68744A934213D07B681C
:102C3C001B68734A93420ED07B681B68714A93429F
:102C4C0009D07B681B68704A934204D07B681B6870
:102C5C006E4A93420AD17B681B681B6803F0080319
:102C6C00002B14BF01230023DBB209E07B681B6837
:102C7C001B6803F00403002B14BF01230023DBB2F9
:102C8C00002B3ED07B68DB6D03F01F0310229A40B3
:102C9C003B6A9A607B681B681B6803F48023002BDB
:102CAC0018D07B681B681B6803F40023002B08D129
:102CBC007B681B6C002B24D07B681B6C7868984756
:102CCC001FE07B689B6C002B1BD07B689B6C78682F
:102CDC00984716E07B681B681B6803F48073002B15
:102CEC0007D17B681B681A687B681B6822F0080296
:102CFC001A607B681B6C002B03D07B681B6C78689C
:102D0C0098477B68DB6D03F01F0320229A40BB6958
:102D1C001340002B00F010817B681B682C4A9342F7
:102D2C004AD07B681B682B4A934245D07B681B6852
:102D3C00294A934240D07B681B68284A93423BD077
:102D4C007B681B68264A934236D07B681B68254AF1
:102D5C00934231D07B681B68234A93422CD07B680A
:102D6C001B68224A934227D07B681B68204A9342F7
:102D7C0022D07B681B681F4A93421DD07B681B685E
:102D8C001D4A934218D07B681B681C4A934213D08F
:102D9C007B681B681A4A93420ED07B681B68194AE1
:102DAC00934209D07B681B68174A934204D07B6816
:102DBC001B68164A93422BD17B681B681B6803F077
:102DCC001003002B14BF01230023DBB22AE000BF49
:102DDC00100002402800024040000240580002400F
:102DEC007000024088000240A0000240B80002407F
:102DFC0010040240280402404004024058040240DF
:102E0C007004024088040240A0040240B80402404E
:102E1C007B681B681B6803F00203002B14BF0123A3
:102E2C000023DBB2002B00F087807B68DB6D03F0A6
:102E3C001F0320229A403B6A9A607B6893F83530D6
:102E4C00DBB2042B39D17B681B681A687B681B6862
:102E5C0022F016021A607B681B685A697B681B6833
:102E6C0022F080025A617B681B6C002B03D17B68BB
:102E7C009B6C002B07D07B681B681A687B681B68EF
:102E8C0022F008021A607B68DB6D03F01F033F22FF
:102E9C009A403B6A9A607B68012283F835207B68F4
:102EAC00002283F834207B681B6D002B00F04A83D2
:102EBC007B681B6D7868984744E37B681B681B68CC
:102ECC0003F48023002B18D07B681B681B6803F469
:102EDC000023002B08D17B685B6C002B2CD07B680B
:102EEC005B6C7868984727E07B68DB6B002B23D002
:102EFC007B68DB6B786898471EE07B681B681B68F7
:102F0C0003F48073002B0FD17B681B681A687B68F5
:102F1C001B6822F010021A607B68012283F83520AE
:102F2C007B68002283F834207B68DB6B002B03D09A
:102F3C007B68DB6B786898477B685B6D002B00F0D7
:102F4C0006837B685B6D03F00103002B00F0888027
:102F5C007B68042283F835207B681B687A4A93428D
:102F6C004AD07B681B68794A934245D07B681B68C2
:102F7C00774A934240D07B681B68764A93423BD099
:102F8C007B681B68744A934236D07B681B68734A13
:102F9C00934231D07B681B68714A93422CD07B687A
:102FAC001B68704A934227D07B681B686E4A934219
:102FBC0022D07B681B686D4A93421DD07B681B68CE
:102FCC006B4A934218D07B681B686A4A934213D0B1
:102FDC007B681B68684A93420ED07B681B68674A03
:102FEC00934209D07B681B68654A934204D07B6886
:102FFC001B68644A934208D17B681B681A687B681B
:10300C001B6822F001021A6007E07B681B681A68D3
:10301C007B681B6822F001021A60FB680133FB60BD
:10302C007A6A9A4207D37B681B681B6803F001031A
:10303C00002BF2D100E000BF7B681B681B6803F01B
:10304C000103002B04D07B68032283F8352003E0B6
:10305C007B68012283F835207B68002283F83420BA
:10306C007B68DB6C002B00F072827B68DB6C786811
:10307C0098476CE27B681B68434A934222D07B687A
:10308C001B68424A93421DD07B681B68404A93429E
:10309C0018D07B681B683F4A934213D07B681B682F
:1030AC003D4A93420ED07B681B683C4A934209D040
:1030BC007B681B683A4A934204D07B681B68394A88
:1030CC00934201D1012300E00023002B00F03F824A
:1030DC007B681B681B683B617B68DB6D03F01F031F
:1030EC0004229A407B691340002B00F0CD803B6991
:1030FC0003F00403002B00F0C7807B68DB6D03F04A
:10310C001F0304229A40FB695A603B6903F4004395
:10311C00002B49D03B6903F48033002B09D17B6829
:10312C009B6C002B00F010827B689B6C7868984736
:10313C000AE27B681B6C002B00F006827B681B6C20
:10314C007868984700E200BF100002402800024057
:10315C0040000240580002407000024088000240CB
:10316C00A0000240B80002401004024028040240B3
:10317C00400402405804024070040240880402409B
:10318C00A0040240B8040240085402581C540258CF
:10319C003054025844540258585402586C54025833
:1031AC0080540258945402583B6903F02003002BBE
:1031BC0060D17B681B687F4A93424AD07B681B684E
:1031CC007D4A934245D07B681B687C4A934240D031
:1031DC007B681B687A4A93423BD07B681B68794AB0
:1031EC00934236D07B681B68774A934231D07B6818
:1031FC001B68764A93422CD07B681B68744A9342B6
:10320C0027D07B681B68734A934222D07B681B686B
:10321C00714A93421DD07B681B68704A934218D048
:10322C007B681B686E4A934213D07B681B686D4A9F
:10323C0093420ED07B681B686B4A934209D07B6823
:10324C001B686A4A934204D07B681B68684A9342A5
:10325C0008D17B681B681A687B681B6822F008021F
:10326C001A6007E07B681B681A687B681B6822F091
:10327C0004021A607B681B6C002B00F065817B6874
:10328C001B6C786898475FE17B68DB6D03F01F036C
:10329C0002229A407B691340002B00F0C5803B69E9
:1032AC0003F00203002B00F0BF807B68DB6D03F0A2
:1032BC001F0302229A40FB695A603B6903F40043E6
:1032CC00002B18D03B6903F48033002B09D17B68A9
:1032DC005B6C002B00F03A817B685B6C78689847DC
:1032EC0034E17B68DB6B002B00F030817B68DB6B9F
:1032FC00786898472AE13B6903F02003002B40F0E3
:10330C0089807B681B682B4A93424AD07B681B6878
:10331C00294A934245D07B681B68284A934240D087
:10332C007B681B68264A93423BD07B681B68254A06
:10333C00934236D07B681B68234A934231D07B681A
:10334C001B68224A93422CD07B681B68204A93420C
:10335C0027D07B681B681F4A934222D07B681B686E
:10336C001D4A93421DD07B681B681C4A934218D09F
:10337C007B681B681A4A934213D07B681B68194AF6
:10338C0093420ED07B681B68174A934209D07B6826
:10339C001B68164A934204D07B681B68144A9342FC
:1033AC0028D17B681B681A687B681B6822F01402A2
:1033BC001A6027E010000240280002404000024042
:1033CC00580002407000024088000240A0000240F9
:1033DC00B80002401004024028040240400402409D
:1033EC00580402407004024088040240A0040240C9
:1033FC00B80402407B681B681A687B681B6822F063
:10340C000A021A607B68012283F835207B6800224F
:10341C0083F834207B68DB6B002B00F097807B6893
:10342C00DB6B7868984791E07B68DB6D03F01F03DA
:10343C0008229A407B691340002B00F088803B697E
:10344C0003F00803002B00F082807B681B68414A64
:10345C0093424AD07B681B683F4A934245D07B68B5
:10346C001B683E4A934240D07B681B683C4A93429F
:10347C003BD07B681B683B4A934236D07B681B6809
:10348C00394A934231D07B681B68384A93422CD01E
:10349C007B681B68364A934227D07B681B68354A89
:1034AC00934222D07B681B68334A93421DD07B68C1
:1034BC001B68324A934218D07B681B68304A93428F
:1034CC0013D07B681B682F4A93420ED07B681B6815
:1034DC002D4A934209D07B681B682C4A934204D036
:1034EC007B681B682A4A934208D17B681B681A6860
:1034FC007B681B6822F01C021A6007E07B681B6863
:10350C001A687B681B6822F00E021A607B68DB6D00
:10351C0003F01F0301229A40FB695A607B68012269
:10352C005A657B68012283F835207B68002283F87A
:10353C0034207B68DB6C002B09D07B68DB6C7868F3
:10354C00984704E000BF02E000BF00E000BF28374E
:10355C00BD4680BD100002402800024040000240E1
:10356C00580002407000024088000240A000024057
:10357C00B8000240100402402804024040040240FB
:10358C00580402407004024088040240A004024027
:10359C00B804024080B485B000AF78607B681B68CB
:1035AC00424A93424AD07B681B68414A934245D0B9
:1035BC007B681B683F4A934240D07B681B683E4A3D
:1035CC0093423BD07B681B683C4A934236D07B6865
:1035DC001B683B4A934231D07B681B68394A934243
:1035EC002CD07B681B68384A934227D07B681B68B9
:1035FC00364A934222D07B681B68354A93421DD0D1
:10360C007B681B68334A934218D07B681B68324A2C
:10361C00934213D07B681B68304A93420ED07B6870
:10362C001B682F4A934209D07B681B682D4A934232
:10363C0004D07B681B682C4A934201D1012300E023
:10364C000023002B24D07B681B68DBB2103B274A7D
:10365C00A2FB03231B09FB60FB6803F00703244A4E
:10366C00D35C1A467B68DA65FB68032B08D97B6848
:10367C001B681A461F4B13401A1D7B689A650DE098
:10368C007B681B681A461B4B13407A68936505E0F0
:10369C007B681B6823F0FF027B689A657B689B6DD7
:1036AC0018461437BD465DF8047B70471000024085
:1036BC0028000240400002405800024070000240C6
:1036CC0088000240A0000240B800024010040240F2
:1036DC002804024040040240580402407004024096
:1036EC0088040240A0040240B8040240ABAAAAAA73
:1036FC00D0A3000800FCFFFF80B485B000AF786059
:10370C000023FB737B689B69002B20D17B689B6A31
:10371C00032B58D801A252F823F000BF3937000808
:10372C004B37000839370008D33700087B68DB6A51
:10373C0003F08073002B48D00123FB7345E07B68BA
:10374C00DB6AB3F1C07F42D10123FB733FE07B689E
:10375C009B69B3F5005F23D17B689B6A032B38D838
:10376C0001A252F823F000BF853700088B37000800
:10377C00853700089D3700080123FB7330E07B6818
:10378C00DB6A03F08073002B25D00123FB7322E04E
:10379C007B68DB6AB3F1C07F1FD10123FB731CE094
:1037AC007B689B6A022B02D9032B03D018E0012300
:1037BC00FB7315E07B68DB6A03F08073002B0ED083
:1037CC000123FB730BE000BF0AE000BF08E000BF61
:1037DC0006E000BF04E000BF02E000BF00E000BF55
:1037EC00FB7B18461437BD465DF8047B704700BF61
:1037FC0080B485B000AF78607B681B68BB607B6869
:10380C001B68384A934222D07B681B68364A934225
:10381C001DD07B681B68354A934218D07B681B68A7
:10382C00334A934213D07B681B68324A93420ED0C2
:10383C007B681B68304A934209D07B681B682F4A0F
:10384C00934204D07B681B682D4A934201D101231B
:10385C0000E00023002B1AD07B681B68DBB2083B0E
:10386C00284AA2FB03231B09FB60FA68264B13446E
:10387C009B001A467B681A667B68244A5A66FB686A
:10388C0003F01F0301229A407B689A6624E07B6850
:10389C001B68DBB2103B1E4AA2FB03231B09FB6017
:1038AC00BB681C4A934206D8BB681B4A934202D998
:1038BC00FB680833FB60FA68184B13449B001A46EC
:1038CC007B681A667B68164A5A66FB6803F01F030E
:1038DC0001229A407B689A6600BF1437BD465DF89A
:1038EC00047B7047085402581C5402583054025838
:1038FC0044540258585402586C540258805402587C
:10390C0094540258CDCCCCCC00960016805802585A
:10391C00ABAAAAAAB80402400F040240008200100D
:10392C008008024080B485B000AF78607B685B682B
:10393C00DBB2FB60FB68002B4AD0FB68082B47D836
:10394C007B681B68254A934222D07B681B68244AFB
:10395C0093421DD07B681B68224A934218D07B6827
:10396C001B68214A934213D07B681B681F4A934201
:10397C000ED07B681B681E4A934209D07B681B687B
:10398C001C4A934204D07B681B681B4A934201D1AA
:10399C00012300E00023002B0AD0FA68174B1344D4
:1039AC009B001A467B68DA667B68154A1A6709E041
:1039BC00FA68144B13449B001A467B68DA667B68E2
:1039CC00114A1A67FB68013B01229A407B685A67CF
:1039DC0000BF1437BD465DF8047B7047085402588D
:1039EC001C5402583054025844540258585402582B
:1039FC006C54025880540258945402583F96001646
:103A0C00405902583F8200104009024080B598B0DE
:103A1C0000AF7860844A07F10C0311464C2218461B
:103A2C0006F088FC7B68002B01D10123C6E17B6882
:103A3C001B687E4A934206D17B681B6803F5807332
:103A4C001A467B685A607B6893F89830DBB2002B7F
:103A5C0006D17B68002283F899207868FCF7D6FEA3
:103A6C007B681B689A697B681B6822F010029A615C
:103A7C00FDF716FCF86514E0FDF712FC0246FB6D31
:103A8C00D31A0A2B0DD97B68D3F89C3043F0010272
:103A9C007B68C3F89C207B68032283F89820012361
:103AAC008CE17B681B689B6903F00803082BE3D04F
:103ABC007B681B689A697B681B6842F001029A61FB
:103ACC00FDF7EEFBF86514E0FDF7EAFB0246FB6D33
:103ADC00D31A0A2B0DD97B68D3F89C3043F0010222
:103AEC007B68C3F89C207B68032283F89820012311
:103AFC0064E17B681B689B6903F00103002BE3D036
:103B0C007B681B689A697B681B6842F002029A61A9
:103B1C007B681B7C012B08D17B681B689A697B68CE
:103B2C001B6822F040029A6107E07B681B689A6967
:103B3C007B681B6842F040029A617B685B7C012BBE
:103B4C0008D17B681B689A697B681B6842F48042C9
:103B5C009A6107E07B681B689A697B681B6822F492
:103B6C0080429A617B689B7C012B08D17B681B6827
:103B7C009A697B681B6822F480529A6107E07B6823
:103B8C001B689A697B681B6842F480529A617B6857
:103B9C001B689B6923F440717B689A687B681B687F
:103BAC000A439A617B681B689A697B681B6822F0E0
:103BBC00A4029A617B681B681A697B681B6822F0F7
:103BCC0010021A617B68DB68012B08D17B681B68CB
:103BDC009A697B681B6842F004029A6130E07B684A
:103BEC00DB68002B2CD07B68DB68022B20D07B6839
:103BFC001B689A697B681B6842F080029A617B683B
:103C0C001B681A697B681B6842F010021A617B689A
:103C1C00DB68032B14D17B681B689A697B681B6873
:103C2C0042F020029A610BE074A3000800A000404F
:103C3C007B681B689A697B681B6842F020029A615A
:103C4C007B689B69013B5A067B68DB69013B1B0265
:103C5C001A437B681B6A013B42EA03017B685B6980
:103C6C00013B1A047B681B680A43DA617B689B681A
:103C7C00B3F5407F15D17B689B6A5A1E7B68DB6A63
:103C8C00013B1B021A437B681B6B013B1B0142EA85
:103C9C0003017B685B6A013B1A047B681B680A435F
:103CAC00DA607B681B6E002B0AD07B681B68D3F82C
:103CBC00C0107B685A6E7B681B680A43C3F8C0202F
:103CCC007B68DA6D7B681B6E1344002B11D07B680C
:103CDC001B68D3F8C83023F007017B689B6E9B00F0
:103CEC0060333B4453F8542C7B681B680A43C3F87D
:103CFC00C8207B681B6C002B11D07B681B68D3F829
:103D0C00BC3023F007017B685B6C9B0060333B4449
:103D1C0053F8542C7B681B680A43C3F8BC207B689F
:103D2C009B6C002B12D07B681B68D3F8BC3023F043
:103D3C0070017B68DB6C9B0060333B4453F8543C54
:103D4C001A017B681B680A43C3F8BC207B681B6D97
:103D5C00002B12D07B681B68D3F8BC3023F4E061D5
:103D6C007B685B6D9B0060333B4453F8543C1A02F8
:103D7C007B681B680A43C3F8BC207B681B68114A2C
:103D8C00934207D17B685B689A687B685B6822F01A
:103D9C0003029A607B680022C3F894207B6800229F
:103DAC00C3F89C207B68012283F89820786800F087
:103DBC004BFE034687F85B3097F85B30184660374C
:103DCC00BD4680BD00A0004080B487B000AF7860D5
:103DDC0039607B6893F89830FB73FB7B012B02D026
:103DEC00FB7B022B57D13B681B68002B2BD13B680C
:103DFC00DB68072B0DD13B681B691A043B68DB6938
:103E0C001B021A433B689B69134343F060537B616D
:103E1C000EE03B689B689A073B68DB68DB061A433D
:103E2C003B681B691B041A433B685B6913437B614A
:103E3C007B68DA6E3B685B689B001344BB60BB68B5
:103E4C007A691A6025E03B68DB685A073B681B6996
:103E5C0013437B613B68DB68072B03D13B689B6991
:103E6C003B6106E03B689B689A073B685B691343C0
:103E7C003B617B681A6F3B685B68DB001344BB607B
:103E8C00BB687A691A60BB680433BB60BB683A696B
:103E9C001A60002308E07B68D3F89C3043F00202E0
:103EAC007B68C3F89C20012318461C37BD465DF87F
:103EBC00047B704780B485B000AFF860B9607A605D
:103ECC003B60FB6893F89830DBB2012B10D1BB68D8
:103EDC001A017B689B001A433B685B0042EA0301B2
:103EEC00FB681B68BA690A43C3F88020002308E00A
:103EFC00FB68D3F89C3043F00402FB68C3F89C20A9
:103F0C00012318461437BD465DF8047B704780B416
:103F1C0083B000AF78607B6893F89830DBB2012BEC
:103F2C0011D17B68022283F898207B681B689A6900
:103F3C007B681B6822F001029A617B680022C3F83F
:103F4C009C20002308E07B68D3F89C3043F00402EB
:103F5C007B68C3F89C20012318460C37BD465DF8DE
:103F6C00047B704780B586B000AFF860B9607A60AA
:103F7C00FB6893F89830DBB2022B41D1FB681B68CD
:103F8C00D3F8C03003F07C53002B09D1FB68D3F875
:103F9C009C3043F02002FB68C3F89C20012338E0DE
:103FAC00FB681B68D3F8C43003F40013002B09D052
:103FBC00FB68D3F89C3043F40072FB68C3F89C2078
:103FCC00012326E0FB681B68D3F8C4301B0C03F0FC
:103FDC001F037B617B697A68B968F86800F0BAFEE8
:103FEC00FB681B6801217A6901FA02F2C3F8D02040
:103FFC0001227B699A40FB68C3F89420002308E0F7
:10400C00FB68D3F89C3043F00802FB68C3F89C2093
:10401C00012318461837BD4680BD000080B48BB014
:10402C0000AFF860B9607A603B600023FB61FB680D
:10403C0093F89830FB76FB7E022B40F04981BB68ED
:10404C00402B4CD1FB681B68D3F8A03003F4FE0363
:10405C00002B09D1FB68D3F89C3043F02002FB689D
:10406C00C3F89C2001233CE1FB681B68D3F8A43007
:10407C0003F07F03002B09D1FB68D3F89C3043F489
:10408C008072FB68C3F89C2001232AE1FB681B6843
:10409C00D3F8A43003F08073B3F1807F0AD1FB68AE
:1040AC001B68D3F8A03003F00043B3F1004F01D1EB
:1040BC000123FB61FB681B68D3F8A4301B0A03F0D7
:1040CC003F03FA691344FB61FB685A6FFB685B6C36
:1040DC00F96901FB03F39B0013447B6268E0BB6846
:1040EC00412B4CD1FB681B68D3F8B03003F4FE03B2
:1040FC00002B09D1FB68D3F89C3043F02002FB68FD
:10410C00C3F89C200123ECE0FB681B68D3F8B430A7
:10411C0003F07F03002B09D1FB68D3F89C3043F4E8
:10412C008072FB68C3F89C200123DAE0FB681B68F3
:10413C00D3F8B43003F08073B3F1807F0AD1FB68FD
:10414C001B68D3F8B03003F00043B3F1004F01D13A
:10415C000123FB61FB681B68D3F8B4301B0A03F026
:10416C003F03FA691344FB61FB689A6FFB68DB6CD5
:10417C00F96901FB03F39B0013447B6218E0FB68B5
:10418C001B6DBA689A4209D3FB68D3F89C3043F094
:10419C002002FB68C3F89C200123A2E0FB68DA6FC5
:1041AC00FB685B6DB96801FB03F39B0013447B62F6
:1041BC007B6A1B6803F080427B685A607B685B6893
:1041CC00002B07D17B6A1B689B0CC3F30A027B682C
:1041DC001A6005E07B6A1B6823F060427B681A60FA
:1041EC007B6A1B6803F000527B689A607B6A1B68D1
:1041FC0003F000427B681A617B6A04337B627B6A42
:10420C001B689AB27B68DA617B6A1B681B0C03F033
:10421C000F027B68DA607B6A1B6803F480127B6890
:10422C005A617B6A1B6803F400127B689A617B6A93
:10423C001B681B0E03F07F027B681A627B6A1B688B
:10424C00DA0F7B685A627B6A04337B627B6A7B6120
:10425C0000233B620AE07A693B6A1A4439683B6A7C
:10426C000B4412781A703B6A01333B627B68DB6843
:10427C001F4AD35C1A463B6A9342ECD3BB68402B73
:10428C0005D1FB681B68FA69C3F8A8201EE0BB685F
:10429C00412B05D1FB681B68FA69C3F8B82015E0FF
:1042AC00BB681F2B08D8FB681B680121BA6801FA90
:1042BC0002F2C3F8982009E0BB6803F01F02FB6808
:1042CC001B68012101FA02F2C3F89C20002308E0CC
:1042DC00FB68D3F89C3043F00802FB68C3F89C20C1
:1042EC00012318462C37BD465DF8047B704700BF90
:1042FC00D8A3000880B485B000AF786039603B6803
:10430C00402B07D17B681B68D3F8A43003F07F03E4
:10431C00FB6006E07B681B68D3F8B43003F07F03C6
:10432C00FB60FB6818461437BD465DF8047B70478C
:10433C0080B485B000AF78607B681B68D3F8C4305C
:10434C0003F03F03FB60FB6818461437BD465DF86D
:10435C00047B704780B487B000AFF860B9607A60B6
:10436C00FB6893F89830FB75FB7D012B02D0FB7D2D
:10437C00022B55D1FB681B689A6DBB681340002B50
:10438C0008D1FB681B68DA6DFB681B6842F0010200
:10439C00DA6514E0FB681B689A6DBB681340BA6859
:1043AC009A4208D1FB681B68DA6DFB681B6842F007
:1043BC000202DA6503E0FB681B680322DA65BB685E
:1043CC0003F40073002B09D0FB681B68D3F8E010D2
:1043DC00FB681B687A680A43C3F8E020BB6803F4E7
:1043EC008063002B09D0FB681B68D3F8E410FB68D2
:1043FC001B687A680A43C3F8E420FB681B68596D94
:10440C00BA680F4B1340FA6812680B4353650D4B97
:10441C005A69BB689B0F0B4913434B61002308E09F
:10442C00FB68D3F89C3043F00202FB68C3F89C2075
:10443C00012318461C37BD465DF8047B704700BF4E
:10444C00FFFFCF3F00A8004080B596B000AF78606A
:10445C009A4B1B699B077B65984B5B699B077A6D35
:10446C0013407B657B681B681B6D03F470433B65D5
:10447C007B681B685B6D3A6D13403B657B681B6802
:10448C001B6D03F00F03FB647B681B685B6DFA6CA0
:10449C001340FB647B681B681B6D03F0F003BB646B
:1044AC007B681B685B6DBA6C1340BB647B681B68D4
:1044BC001B6D03F071537B647B681B685B6D7A6CBE
:1044CC0013407B647B681B681B6D03F060733B645B
:1044DC007B681B685B6D3A6C13403B647B681B68A4
:1044EC005B6DFB637B681B681B6DBB63FB6B1B0A03
:1044FC0003F00103002B10D0BB6B1B0A03F001036C
:10450C00002B0AD07B681B684FF480721A656B4BCA
:10451C0000221A61786800F05FFAFB6B9B0A03F0CB
:10452C000103002B1DD0BB6B9B0A03F00103002B76
:10453C0017D07B681B68D3F8DC307B637B681B6807
:10454C00D3F8E4307A6B13407B637B681B684FF4C1
:10455C0080621A65594B00221A61796B786800F0F9
:10456C0012FA7B6D002B0DD07B681A68796D544B59
:10457C000B401365514A7B6D9B0F1361796D786805
:10458C0000F0C0F93B6D002B0DD07B681A68396DBB
:10459C004B4B0B401365494A3B6D9B0F1361396DB7
:1045AC00786800F0BAF9FB6C002B0DD07B681A68A8
:1045BC00F96C434B0B401365404AFB6C9B0F13612A
:1045CC00F96C786800F0B4F9BB6C002B0DD07B68EB
:1045DC001A68B96C3A4B0B401365384ABB6C9B0F8D
:1045EC001361B96C786800F0AEF9FB6BDB0A03F071
:1045FC000103002B10D0BB6BDB0A03F00103002B73
:10460C000AD07B681B684FF400621A652B4B0022A2
:10461C001A61786800F0A2F9FB6B5B0A03F00103E6
:10462C00002B1DD0BB6B5B0A03F00103002B17D0D2
:10463C007B681B68D3F8D8303B637B681B68D3F866
:10464C00E0303A6B13403B637B681B684FF400729D
:10465C001A651A4B00221A61396B786800F088F9D8
:10466C00FB6BDB0C03F00103002B10D0BB6BDB0CE2
:10467C0003F00103002B0AD07B681B684FF4002267
:10468C001A650E4B00221A61786800F087F9FB6BF3
:10469C001B0C03F00103002B16D0BB6B1B0C03F09F
:1046AC000103002B10D07B681B684FF480321A6515
:1046BC00024B00221A61786804E000BF00A8004099
:1046CC00FFFFCF3F00F074F9FB6B9B0C03F0010371
:1046DC00002B10D0BB6B9B0C03F00103002B0AD0FA
:1046EC007B681B684FF480221A65834B00221A6189
:1046FC00786800F067F9FB6B5B0C03F00103002B8F
:10470C0015D0BB6B5B0C03F00103002B0FD07B6847
:10471C001B684FF400321A65774B00221A617B68D4
:10472C00D3F89C3043F080027B68C3F89C203B6C30
:10473C00002B0DD07B681A68396C704B0B401365DD
:10474C006D4A3B6C9B0F1361396C786805F018FD52
:10475C007B6C002B11D07B681A68796C674B0B4013
:10476C001365654A7B6C9B0F13617B68D3F89C20A7
:10477C007B6C1A437B68C3F89C207B681B68604A7F
:10478C00934240F0AC807B685B689B6803F003034A
:10479C00002B00F0A4807B685B681B6A03F00F039E
:1047AC00FB627B685B685B6AFA6A1340FB627B683E
:1047BC005B681B6A03F03003BB627B685B685B6AF7
:1047CC00BA6A1340BB627B685B681B6A03F4C073F4
:1047DC007B627B685B685B6A7A6A13407B627B688E
:1047EC005B681B6A03F4FC433B627B685B685B6A37
:1047FC003A6A13403B627B685B681B6A03F4F023E4
:10480C00FB617B685B685B6AFA691340FB617B68E0
:10481C005B685B6ABB617B685B681B6A7B61FB6A7C
:10482C00002B07D07B685B68FA6A1A62F96A7868B1
:10483C0000F0DCF8BB6A002B07D07B685B68BA6AB7
:10484C001A62B96A786800F0DCF8BB699B0903F05E
:10485C000103002B1AD07B699B0903F00103002B89
:10486C0014D07B685B68DB6B1B0C9BB23B617B6879
:10487C005B68DB6B03F03F03FB607B685B6840228B
:10488C001A62FA683969786800F0C6F87B6A002BFE
:10489C0007D07B685B687A6A1A62796A786800F07C
:1048AC00C7F83B6A002B0BD07B685B683A6A1A62CC
:1048BC007B68D3F89C203B6A1A437B68C3F89C2026
:1048CC00FB69002B0BD07B685B68FA691A627B680A
:1048DC00D3F89C20FB691A437B68C3F89C207B6847
:1048EC00D3F89C30002B02D0786805F054FC00BF44
:1048FC005837BD4680BD00BF00A80040FFFFCF3F2A
:10490C0000A0004080B483B000AF7860396000BF75
:10491C000C37BD465DF8047B704780B483B000AFA4
:10492C007860396000BF0C37BD465DF8047B70477A
:10493C0080B483B000AF7860396000BF0C37BD46DF
:10494C005DF8047B704780B483B000AF7860396049
:10495C0000BF0C37BD465DF8047B704780B483B054
:10496C0000AF786000BF0C37BD465DF8047B704724
:10497C0080B483B000AF7860396000BF0C37BD469F
:10498C005DF8047B704780B483B000AF7860396009
:10499C0000BF0C37BD465DF8047B704780B483B014
:1049AC0000AF786000BF0C37BD465DF8047B7047E4
:1049BC0080B483B000AF786000BF0C37BD465DF8A3
:1049CC00047B704780B483B000AF786000BF0C37B5
:1049DC00BD465DF8047B704780B483B000AF78604F
:1049EC0000BF0C37BD465DF8047B704780B483B0C4
:1049FC0000AF7860396000BF0C37BD465DF8047BB2
:104A0C00704780B483B000AF7860396000BF0C375A
:104A1C00BD465DF8047B704780B485B000AFF8608C
:104A2C00B9607A6000BF1437BD465DF8047B7047EF
:104A3C0080B483B000AF7860396000BF0C37BD46DE
:104A4C005DF8047B7047000080B485B000AF7860DF
:104A5C007B685B6BBB607B681B68D3F88420A74BBF
:104A6C001340BA6891007A6812680B43C2F884301C
:104A7C007B681B68D3F8843023F47F017B689B6BC5
:104A8C001A047B681B680A43C3F884207B689B6B01
:104A9C00BA681344BB607B681B68D3F88820974BBB
:104AAC001340BA6891007A6812680B43C2F88830D8
:104ABC007B681B68D3F8883023F4FE017B68DB6BC2
:104ACC001A047B681B680A43C3F888207B68DB6B7D
:104ADC005B00BA681344BB607B681B68D3F8A020EA
:104AEC00864B1340BA6891007A6812680B43C2F87F
:104AFC00A0307B681B68D3F8A03023F4FE017B68E0
:104B0C001B6C1A047B681B680A43C3F8A0207B68E3
:104B1C001B6C7A68526C02FB03F3BA681344BB60DB
:104B2C007B681B68D3F8B020744B1340BA689100B3
:104B3C007A6812680B43C2F8B0307B681B68D3F8F4
:104B4C00B03023F4FE017B689B6C1A047B681B68F5
:104B5C000A43C3F8B0207B689B6C7A68D26C02FB6A
:104B6C0003F3BA681344BB607B681B68D3F8AC20B2
:104B7C00624B1340BA6891007A6812680B43C2F812
:104B8C00AC307B681B6D7A68526D02FB03F3BA681C
:104B9C001344BB607B681B68D3F8F020574B134061
:104BAC00BA6891007A6812680B43C2F8F0307B68DF
:104BBC001B68D3F8F03023F47C117B689B6D1A04CE
:104BCC007B681B680A43C3F8F0207B689B6D5B0015
:104BDC00BA681344BB607B681B68D3F8C020474B92
:104BEC001340BA6891007A6812680B43C2F8C0305F
:104BFC007B681B68D3F8C03023F47C117B68DB6DB9
:104C0C001A047B681B680A43C3F8C0207B681B68C6
:104C1C00D3F8C03023F07C517B681B6E1A067B687E
:104C2C001B680A43C3F8C0207B685A6B344B13448F
:104C3C009A007B68DA667B68DA6E7B689B6B9B00FC
:104C4C001A447B681A677B681A6F7B68DB6BDB0026
:104C5C001A447B685A677B685A6F7B681B6C79684F
:104C6C00496C01FB03F39B001A447B689A677B68D1
:104C7C009A6F7B689B6C7968C96C01FB03F39B0092
:104C8C001A447B68DA677B68DA6F7B681B6D79681E
:104C9C00496D01FB03F39B001A447B68C3F8802029
:104CAC007B68D3F880207B689B6DDB001A447B68A3
:104CBC00C3F884207B68D3F884207B68DB6D79682B
:104CCC00896E01FB03F39B001A447B68C3F88820B0
:104CDC007B68D3F888207B681B6E7968896E01FB32
:104CEC0003F39B001A447B68C3F890207B68D3F8CD
:104CFC009030044A934215D906E000BF0300FFFF31
:104D0C00002B0010FCD300407B68D3F89C3043F0A0
:104D1C0020027B68C3F89C207B68032283F89820D0
:104D2C00012310E07B68DB6EFB6005E0FB68002272
:104D3C001A60FB680433FB607B68D3F89030FA6828
:104D4C009A42F3D3002318461437BD465DF8047B12
:104D5C00704700BF80B489B000AFF860B9607A606A
:104D6C003B60BB685B68002B0AD1BB681A69BB68E7
:104D7C009B681A43BB681B689B041343FB610AE0E6
:104D8C00BB681A69BB689B681A43BB681B681343F2
:104D9C0043F08043FB61BB681B6A1A06BB68DB6986
:104DAC001A43BB689B691A43BB685B691A43BB68AF
:104DBC00DB681B0413433B61FB68D3F88420FB685E
:104DCC009B6E396801FB03F39B001344BB61BB6909
:104DDC00FA691A60BB690433BB61BB693A691A6032
:104DEC00BB690433BB6100237B6120E07B69033327
:104DFC007A6813441B781A067B69023379680B4472
:104E0C001B781B041A437B69013379680B441B78AC
:104E1C001B02134379687A690A4412781A43BB69F6
:104E2C001A60BB690433BB617B6904337B61BB686B
:104E3C00DB68064AD35C1A467B699342D6D300BF23
:104E4C0000BF2437BD465DF8047B7047D8A300082B
:104E5C0080B489B000AF786039600023FB61864B69
:104E6C007B618CE13B681A680121FB6901FA03F351
:104E7C0013403B613B69002B00F07E813B685B6813
:104E8C0003F00303012B05D03B685B6803F00303BD
:104E9C00022B30D17B689B68BB61FB695B000322F2
:104EAC0002FA03F3DB43BA691340BB613B68DA686F
:104EBC00FB695B0002FA03F3BA691343BB617B68BD
:104ECC00BA699A607B685B68BB610122FB6902FA74
:104EDC0003F3DB43BA691340BB613B685B681B0996
:104EEC0003F00102FB6902FA03F3BA691343BB61D5
:104EFC007B68BA695A603B685B6803F00303032B59
:104F0C0017D07B68DB68BB61FB695B00032202FA8C
:104F1C0003F3DB43BA691340BB613B689A68FB69D6
:104F2C005B0002FA03F3BA691343BB617B68BA698D
:104F3C00DA603B685B6803F00303022B23D1FB6947
:104F4C00DA087B68083253F82230BB61FB6903F046
:104F5C0007039B000F2202FA03F3DB43BA691340E9
:104F6C00BB613B681A69FB6903F007039B0002FAFB
:104F7C0003F3BA691343BB61FB69DA087B68083237
:104F8C00B96943F822107B681B68BB61FB695B0045
:104F9C00032202FA03F3DB43BA691340BB613B689B
:104FAC005B6803F00302FB695B0002FA03F3BA6966
:104FBC001343BB617B68BA691A603B685B6803F496
:104FCC004033002B00F0D8802C4BD3F8F4302B4A14
:104FDC0043F00203C2F8F430284BD3F8F43003F05A
:104FEC000203FB60FB68264AFB699B08023352F8FC
:104FFC002330BB61FB6903F003039B000F2202FA11
:10500C0003F3DB43BA691340BB617B681D4A9342CF
:10501C004AD07B681C4A93422BD07B681B4A934234
:10502C0025D07B681A4A93421FD07B68194A934259
:10503C0019D07B68184A934213D07B68174A934265
:10504C000DD07B68164A934207D07B68154A934271
:10505C0001D1092329E00A2327E0072325E00623B1
:10506C0023E0052321E004231FE003231DE002239A
:10507C001BE0012319E000BF8000005800440258D7
:10508C00000400580000025800040258000802589E
:10509C00000C025800100258001402580018025854
:1050AC00001C0258002402580023FA6902F0030283
:1050BC0092009340BA691343BB613849FB699B0862
:1050CC000233BA6941F823204FF0B0431B68BB612F
:1050DC003B69DB43BA691340BB613B685B6803F413
:1050EC008013002B03D0BA693B691343BB614FF0AB
:1050FC00B042BB6913604FF0B0435B68BB613B6966
:10510C00DB43BA691340BB613B685B6803F4001373
:10511C00002B03D0BA693B691343BB614FF0B0421B
:10512C00BB6953607B695B68BB613B69DB43BA69F4
:10513C001340BB613B685B6803F40033002B03D066
:10514C00BA693B691343BB617B69BA695A607B6975
:10515C001B68BB613B69DB43BA691340BB613B68AD
:10516C005B6803F48033002B03D0BA693B691343AB
:10517C00BB617B69BA691A60FB690133FB613B68EF
:10518C001A68FB6922FA03F3002B7FF46BAE00BFA5
:10519C0000BF2437BD465DF8047B704700040058FF
:1051AC0080B584B000AF78607B68002B01D10123FF
:1051BC0043E07B681B684CF6CC421A607B681B682A
:1051CC0045F255521A607B681B687A6852685A60BF
:1051DC007B681B687A6892689A60FCF761F8F860E3
:1051EC0011E0FCF75DF80246FB68D31A41F60102A8
:1051FC00934208D97B681B68DB6803F00703002B1C
:10520C0001D0032319E07B681B68DB6803F00703FC
:10521C00002BE6D17B681B681A697B68DB689A42B5
:10522C0005D07B681B687A68D2681A6104E07B68D9
:10523C001B684AF6AA221A60002318461037BD468E
:10524C0080BD000080B584B000AF7860194BDB687E
:10525C0003F00403042B0AD0164BDB6803F007039E
:10526C007A689A4201D001231FE000231DE0114B04
:10527C00DB6823F007020F497B681343CB60FCF714
:10528C000FF8F86009E0FCF70BF80246FB68D31A3C
:10529C00B3F57A7F01D9012307E0064B5B6803F471
:1052AC000053B3F5005FEED1002318461037BD460E
:1052BC0080BD00BF0048025880B58CB000AF78604C
:1052CC007B68002B01D10123C8E37B681B6803F0CA
:1052DC000103002B00F08780884B1B6903F0380317
:1052EC00FB62864B9B6ABB62FB6A102B07D0FB6A86
:1052FC00182B10D1BB6A03F00303022B0BD17F4B8D
:10530C001B6803F40033002B6CD07B685B68002BAC
:10531C0068D10123A2E37B685B68B3F5803F06D1BB
:10532C00764B1B68754A43F4803313602EE07B6820
:10533C005B68002B0CD1714B1B68704A23F48033D3
:10534C0013606E4B1B686D4A23F4802313601DE0C1
:10535C007B685B68B3F5A02F0CD1684B1B68674A60
:10536C0043F480231360654B1B68644A43F4803319
:10537C0013600BE0614B1B68604A23F480331360AD
:10538C005E4B1B685D4A23F4802313607B685B686B
:10539C00002B13D0FBF784FF786208E0FBF780FF4B
:1053AC0002467B6AD31A642B01D9032356E3534B71
:1053BC001B6803F40033002BF0D014E0FBF770FFF4
:1053CC00786208E0FBF76CFF02467B6AD31A642B09
:1053DC0001D9032342E3494B1B6803F40033002B30
:1053EC00F0D100E000BF7B681B6803F00203002BC8
:1053FC0000F08C80414B1B6903F038033B623F4B40
:10540C009B6AFB613B6A002B07D03B6A182B37D198
:10541C00FB6903F00303002B32D1384B1B6803F0FC
:10542C000403002B05D07B68DB68002B01D1012322
:10543C0014E3324B1B6823F019027B68DB682F499D
:10544C0013430B60FBF72CFF786208E0FBF728FF97
:10545C0002467B6AD31A022B01D90323FEE2274BA7
:10546C001B6803F00403002BF0D0244B5B6823F083
:10547C00FE427B681B691B06204913434B6045E0C9
:10548C007B68DB68002B26D01C4B1B6823F01902B1
:10549C007B68DB68194913430B60FBF701FF7862EB
:1054AC0008E0FBF7FDFE02467B6AD31A022B01D9FA
:1054BC000323D3E2114B1B6803F00403002BF0D041
:1054CC000E4B5B6823F0FE427B681B691B060B4985
:1054DC0013434B601AE0094B1B68084A23F0010385
:1054EC001360FBF7DDFE78620AE0FBF7D9FE02469B
:1054FC007B6AD31A022B03D90323AFE20044025870
:10550C00964B1B6803F00403002BEED17B681B68E1
:10551C0003F01003002B6AD0904B1B6903F0380387
:10552C00BB618E4B9B6A7B61BB69082B07D0BB6947
:10553C00182B1BD17B6903F00303012B16D1874B6E
:10554C001B6803F48073002B05D07B68DB69802B10
:10555C0001D0012382E2814BDB6823F07C527B6813
:10556C001B6A1B067D491343CB6040E07B68DB69FB
:10557C00002B23D0794B1B68784A43F080031360CF
:10558C00FBF78EFE786208E0FBF78AFE02467B6A28
:10559C00D31A022B01D9032360E2704B1B6803F46E
:1055AC008073002BF0D06D4BDB6823F07C527B6852
:1055BC001B6A1B0669491343CB6018E0674B1B68D9
:1055CC00664A23F080031360FBF76AFE786208E0FA
:1055DC00FBF766FE02467B6AD31A022B01D9032322
:1055EC003CE25E4B1B6803F48073002BF0D17B68AC
:1055FC001B6803F00803002B36D07B685B69002B1B
:10560C0019D0564B5B6F554A43F001035367FBF7B8
:10561C0047FE786208E0FBF743FE02467B6AD31A2A
:10562C00022B01D9032319E24C4B5B6F03F00203ED
:10563C00002BF0D018E0494B5B6F484A23F0010374
:10564C005367FBF72DFE786208E0FBF729FE024654
:10565C007B6AD31A022B01D90323FFE13F4B5B6F0B
:10566C0003F00203002BF0D17B681B6803F02003CE
:10567C00002B36D07B689B69002B19D0374B1B68ED
:10568C00364A43F480531360FBF70AFE786208E055
:10569C00FBF706FE02467B6AD31A022B01D90323C1
:1056AC00DCE12E4B1B6803F40053002BF0D018E008
:1056BC002A4B1B68294A23F480531360FBF7F0FD37
:1056CC00786208E0FBF7ECFD02467B6AD31A022BEA
:1056DC0001D90323C2E1214B1B6803F40053002BB7
:1056EC00F0D17B681B6803F00403002B00F086806C
:1056FC001B4B1B681A4A43F480731360FBF7D0FDF5
:10570C00786208E0FBF7CCFD02467B6AD31A642B67
:10571C0001D90323A2E1124B1B6803F48073002B05
:10572C00F0D07B689B68012B06D10C4B1B6F0B4A8E
:10573C0043F00103136732E07B689B68002B11D1A7
:10574C00064B1B6F054A23F001031367034B1B6FBA
:10575C00024A23F00403136721E000BF00440258FF
:10576C00004802587B689B68052B0CD1834B1B6F40
:10577C00824A43F004031367804B1B6F7F4A43F04C
:10578C00010313670BE07D4B1B6F7C4A23F0010375
:10579C0013677A4B1B6F794A23F0040313677B68FA
:1057AC009B68002B15D0FBF77BFD78620AE0FBF7BA
:1057BC0077FD02467B6AD31A41F28832934201D9B3
:1057CC0003234BE16D4B1B6F03F00203002BEED058
:1057DC0014E0FBF765FD78620AE0FBF761FD024619
:1057EC007B6AD31A41F28832934201D9032335E103
:1057FC00624B1B6F03F00203002BEED17B685B6ADC
:10580C00002B00F02A815D4B1B6903F03803182B29
:10581C0000F0BA807B685B6A022B40F09580574B96
:10582C001B68564A23F080731360FBF739FD7862CE
:10583C0008E0FBF735FD02467B6AD31A022B01D92F
:10584C0003230BE14D4B1B6803F00073002BF0D1CD
:10585C004A4B9A6A4A4B13407A68916A7A68D26AC0
:10586C0012010A43454913438B627B681B6B013B56
:10587C00C3F308027B685B6B013B5B029BB21A4370
:10588C007B689B6B013B1B0403F4FE031A437B6890
:10589C00DB6B013B1B0603F0FE43384913430B63E0
:1058AC00364BDB6A354A23F00103D362334B5A6B18
:1058BC00344B13407A68926CD200304913434B63DB
:1058CC002E4BDB6A23F00C027B681B6C2B491343B9
:1058DC00CB622A4BDB6A23F002027B685B6C2749A4
:1058EC001343CB62254BDB6A244A43F48033D362E7
:1058FC00224BDB6A214A43F40033D3621F4BDB6A31
:10590C001E4A43F48023D3621C4BDB6A1B4A43F0D0
:10591C000103D362194B1B68184A43F08073136060
:10592C00FBF7BEFC786208E0FBF7BAFC02467B6A28
:10593C00D31A022B01D9032390E0104B1B6803F000
:10594C000073002BF0D088E00C4B1B680B4A23F043
:10595C0080731360FBF7A4FC786208E0FBF7A0FCF3
:10596C0002467B6AD31A022B01D9032376E0034B40
:10597C001B6803F00073002BF0D16EE0004402585A
:10598C000CFCFFFF0700FFFF364B9B6A3B61354B5E
:10599C001B6BFB607B685B6A012B31D03B6903F0AE
:1059AC0003027B689B6A9A422AD13B691B0903F06C
:1059BC003F027B68DB6A9A4222D1FB68C3F3080280
:1059CC007B681B6B013B9A421AD1FB685B0A03F0A4
:1059DC007F027B685B6B013B9A4211D1FB681B0C0D
:1059EC0003F07F027B689B6B013B9A4208D1FB68FA
:1059FC001B0E03F07F027B68DB6B013B9A4201D0EC
:105A0C0001232BE0174B5B6BDB08C3F30C033B61EF
:105A1C007B689B6C3A699A421FD0124BDB6A114A25
:105A2C0023F00103D362FBF73BFC786200BFFBF76A
:105A3C0037FC02467B6A9342F9D00A4B5A6B0A4BED
:105A4C0013407A68926CD200064913434B63054BA2
:105A5C00DB6A044A43F00103D36200231846303753
:105A6C00BD4680BD004402580700FFFF80B586B0DC
:105A7C0000AF786039607B68002B01D101239CE179
:105A8C008A4B1B6803F00F033A689A4210D9874B74
:105A9C001B6823F00F0285493B6813430B60834B53
:105AAC001B6803F00F033A689A4201D0012384E18A
:105ABC007B681B6803F00403002B10D07B681A6909
:105ACC007B4B9B6903F070039A4208D9784B9B6916
